S01700004763634170706C69636174696F6E312E737265635B
S11300000C9434000C9451000C9451000C94510045
S11300100C9451000C9451000C9451000C94510018
S11300200C9451000C9459030C9451000C945100FD
S11300300C9451000C94F5020C9451000C94510052
S11300400C94D1020C9451000C941A040C9448049E
S11300500C9451000C9451000C9451000C945100D8
S11300600C9451000C94510011241FBECFEFD8E022
S1130070DEBFCDBF11E0A0E0B1E0ECECF9E002C0DE
S113008005900D92A43BB107D9F722E0A4EBB1E0AF
S113009001C01D92A030B207E1F70E94AA020C949D
S11300A0E4040C940000FC01408121E030E002C033
S11300B0220F331F6A95E2F7242720830895FC0159
S11300C0808190E002C0959587956A95E2F78170EA
S11300D00895299A85E08A95F1F7000029980895F2
S11300E0CF93C82F662311F0289A01C02898549AF8
S11300F0559A569A579A5F985E985D985C98CC2367
S11301000CF45F9AC6FD5E9AC5FD5D9AC4FD5C9AC7
S11301100E9469005F985E985D985C98C3FD5F9A41
S1130120C2FD5E9AC1FD5D9AC0FD5C9A0E946900A1
S11301305C9A5D9A5E9A5F9A87EB9BE00197F1F770
S113014000C00000CF91089560E00E9470000895FF
S113015061E00E9470000895611104C080580E94FB
S1130160A400089580540E94A400089581E00E9490
S1130170A400089561E00E9470000895CF93DF9376
S1130180EC012196FC018081882329F00E94BA00A9
S113019089918111FBCFDF91CF910895CF93C82F1F
S11301A0209A559A219A549A559A569A579A8FEFAB
S11301B099EF0197F1F700C000005D9A5C9A0E94E4
S11301C069008FE19EE40197F1F700C000000E94EE
S11301D069008FEF90E00197F1F700C000000E94E2
S11301E069008FEF90E00197F1F700C000005C9880
S11301F00E9469008FEF90E00197F1F700C00000C2
S113020088E20E94A40088E00E94A4000E94B60034
S113021086E00E94A4008C2F0E94A400CF91089530
S11302200F931F93CF93DF9380E40E94A400C4E054
S1130230D1E004E111E089910E94A800C017D10720
S1130240D1F780E80E94A4000E94B60080E00E94DA
S1130250BA0060E08FE00E94AC0080E00E94BA0027
S113026061E080E00E94AC0081E00E94BA0061E09D
S11302708FE00E94AC0081E00E94BA0060E081E05F
S11302800E94AC0084E191E00E94BE00DF91CF9116
S11302901F910F910895CF92DF92EF92FF920F93E7
S11302A01F93CF93DF9387B1807887B988B18F602C
S11302B088B900E010E06894CC24C4F8D12CD02F85
S11302C097B17601002E02C0EE0CFF1C0A94E2F7EF
S11302D09E2997B960E086E290E00E945F0088233F
S11302E0E9F0C0E06C2F86E290E00E945F0081118B
S11302F007C08C2F880FC80F81E08D0F8C0F0FC0A3
S1130300CF5FC43079F787B1E094E822E7B80F5F94
S11303101F4F0330110599F680E001C08FEFDF9184
S1130320CF911F910F91FF90EF90DF90CF900895A0
S11303300F931F93CF93DF9300D000D01F92CDB7BC
S1130340DEB78C01E1EBF0E0808187608083E0E739
S1130350F0E08081816080830E944B01882309F44E
S11303604BC08A3019F08C3061F006C0F8018381EB
S11303708A3081F483E01CC0F80190819A3001F541
S11303802CC0E0E7F0E080818E7F808382E0809360
S1130390BA0132C0F80133968AE08083FFEF24E388
S11303A08CE0F15020408040E1F700C0000024C000
S11303B08150F801E80FF11D90819A30C9F3ECCF18
S11303C098012F5F3F4FA8014C5F5F4FF9012F5FEA
S11303D03F4F90819A3021F401C0F801808303C01B
S11303E04217530799F79FEFE4E3FCE09150E04094
S11303F0F040E1F700C0000085E0E2E2F1E0DE0158
S1130400119601900D928A95E1F760E08AE00E94CE
S1130410AC00D801FE0131969E012B5F3F4F8D91B8
S11304208A3011F08AE201C08FE58193E217F30765
S1130430B1F7CE0101960E94BE000F900F900F906D
S11304400F900F90DF91CF911F910F910895FC01B0
S11304508081843099F481818230D1F58281843025
S1130460C9F583818230C1F561E081E00E94AC006E
S113047087E291E00E94BE0081E008958B3099F4F8
S11304808181813059F58281823051F583818330B5
S113049049F561E081E00E94AC0085E391E00E94AF
S11304A0BE0081E008958930F9F481818830F1F447
S11304B082818730E9F483818430E1F461E081E072
S11304C00E94AC0083E491E00E94BE0081E00895A4
S11304D080E0089580E0089580E0089580E0089524
S11304E080E0089580E0089580E0089580E0089514
S11304F080E0089580E008958091BA018230D9F0B7
S113050028F4882331F0813089F021C0853008F146
S11305101EC00E941001E0E0F1E08AE08083818344
S11305208283838381E08093BA01089580E091E01F
S11305300E949801089580E091E00E9427028111B1
S113054002C084E001C083E08093BA010895109250
S1130550BA01089584B18C6084B985B1837F85B96B
S113056085B58D7F85BD85B5856085BDEEE6F0E0FA
S1130570808181608083E1E8F0E080818B7F8083EB
S1130580808183608083EFE6F0E0808181608083F6
S11305908CE00E94CE0087E690E00E94720478947A
S11305A0FFCF1F920F920FB60F9211242F933F93F8
S11305B04F935F936F937F938F939F93AF93BF9367
S11305C0EF93FF930E947C02FF91EF91BF91AF9153
S11305D09F918F917F916F915F914F913F912F9157
S11305E00F900FBE0F901F9018951F920F920FB689
S11305F00F9211242F933F934F935F936F937F93A5
S11306008F939F93AF93BF93EF93FF9387E991E009
S11306100E94A0049091BA018091B9019817A1F1A8
S113062081E591E00E94A0048091BA018230A9F092
S113063028F4882341F0813059F01EC0833091F0B2
S11306408430A9F019C081E691E00E94A00418C08A
S113065087E691E00E94A00413C080E791E00E9425
S1130660A0040EC08BE791E00E94A00409C085E8B5
S113067091E00E94A00404C080E991E00E94A004DB
S113068086E991E00E94A0048091BA018093B901A7
S1130690FF91EF91BF91AF919F918F917F916F9156
S11306A05F914F913F912F910F900FBE0F901F902C
S11306B018951F920F920FB60F9211242F933F9308
S11306C04F935F936F937F938F939F93AF93BF9356
S11306D0EF93FF93CF93DF9300D01F92CDB7DEB794
S11306E080E290E29A8389831B828091B501909184
S11306F0B601A091B701B091B801892B8A2B8B2B3D
S113070009F05BC08091BA01833031F463E085E283
S113071090E00E94530051C0843009F062C080917F
S1130720B4018F5F8093B4010E94B60080E00E9400
S1130730BA0060E08FE00E94AC0080E00E94BA0042
S113074061E080E00E94AC0081E00E94BA0061E0B8
S11307508FE00E94AC0081E00E94BA0060E081E07A
S11307600E94AC0088E991E00E94BE0061E081E053
S11307700E94AC0086EA91E00E94BE0061E08DE038
S11307800E94AC008091B4014AE0BE016F5F7F4FCC
S113079090E00E94AF04CE0101960E94BE008091B9
S11307A0B401843619F41092B40107C0853028F0DE
S11307B062E085E290E00E9453008091B50190913F
S11307C0B601A091B701B091B801823E9440A10551
S11307D0B10539F41092BA01E0E7F0E080818E7F30
S11307E080838091B5019091B601A091B701B09139
S11307F0B8010196A11DB11D8093B5019093B60176
S1130800A093B701B093B8010F900F900F90DF91B0
S1130810CF91FF91EF91BF91AF919F918F917F9174
S11308206F915F914F913F912F910F900FBE0F9059
S11308301F9018951F920F920FB60F9211242F93A9
S11308408F939F93EF93FF938091C0002091C600F4
S11308508C71E091BD01EF5FEF719091BC01E917DC
S113086039F0E093BD01F0E0E054FE4F208301C075
S113087082E09091BB01892B8093BB01FF91EF91A2
S11308809F918F912F910F900FBE0F901F901895ED
S11308901F920F920FB60F9211248F939F93EF9391
S11308A0FF939091BF018091BE01981769F0E09188
S11308B0BE01EF5FEF71E093BE01F0E0E052FE4F46
S11308C080818093C60005C0E1ECF0E080818F7DDB
S11308D08083FF91EF919F918F910F900FBE0F90A6
S11308E01F9018951092BF011092BE011092BD0185
S11308F01092BC0199231CF422E02093C00090784C
S11309009093C5008093C40088E98093C10086E079
S11309108093C20008952091BF012F5F2F719091A1
S1130920BE012917E1F3E22FF0E0E052FE4F80838D
S11309302093BF01E1ECF0E0808180628083089520
S1130940CF93DF93EC018881882331F021960E94B4
S11309508B0489918111FBCFDF91CF910895BB273F
S11309604A3031F4992322F4BDE2909581959F4F4A
S11309700C94BB04BB27FB015527AA27880F991F9A
S1130980AA1FA41710F0A41B83955051B9F7A05DBA
S1130990AA3308F0A95DA193009779F7B111B19337
S11309A01192CB010C94D404DC01FC01672F7191EA
S11309B07723E1F7329704C07C916D937083629141
S10F09C0AE17BF07C8F30895F894FFCFEA
S11309CC0A0A0A0A040E1F1F1F040E000E041F1F1E
S11309DC1F0E040050617373776F72643A5F5F5F2C
S11309EC5F00202020200057656C636F6D652055D7
S11309FC736572310057656C636F6D652055736553
S1130A0C72320057656C636F6D6520557365723374
S1130A1C0043757272656E742073746174653A2048
S1130A2C005245534554004745545F434F444500D9
S1130A3C434845434B5F434F444500444F4F525F3B
S1130A4C4F50454E0057524F4E475F434F4445005D
S1130A5C4552524F52000A004143434553532044DC
S1130A6C454E4945440057524F4E47205452494530
S1070A7C533A0000E5
S9030000FC
