S01700004763634170706C69636174696F6E312E737265635B
S11300000C9434000C9451000C9451000C94510045
S11300100C9451000C9451000C9451000C94510018
S11300200C9451000C9491030C9451000C945100C5
S11300300C9451000C9411030C9451000C94510035
S11300400C94ED020C9451000C9440040C946E0436
S11300500C9451000C9451000C9451000C945100D8
S11300600C9451000C94510011241FBECFEFD8E022
S1130070DEBFCDBF11E0A0E0B1E0E8E1FAE002C0EC
S113008005900D92A23BB107D9F722E0A2EBB1E0B3
S113009001C01D92A130B207E1F70E94CA020C947C
S11300A00A050C940000FC01808190E002C0959543
S11300B087956A95E2F781700895299A85E08A9573
S11300C0F1F7000029980895CF93C82F662311F003
S11300D0289A01C02898549A559A569A579A5F9824
S11300E05E985D985C98CC230CF45F9AC6FD5E9A8A
S11300F0C5FD5D9AC4FD5C9A0E945D005F985E98A0
S11301005D985C98C3FD5F9AC2FD5E9AC1FD5D9ADD
S1130110C0FD5C9A0E945D005C9A5D9A5E9A5F9A4B
S113012087EB9BE00197F1F700C00000CF910895A1
S113013060E00E946400089561E00E9464000895F4
S1130140611104C080580E949800089580540E9450
S11301509800089581E00E949800089561E00E944B
S113016064000895CF93DF93EC012196FC01808114
S1130170882329F00E94AE0089918111FBCFDF9181
S1130180CF910895CF93C82F209A559A219A549AC3
S1130190559A569A579A8FEF99EF0197F1F700C045
S11301A000005D9A5C9A0E945D008FE19EE40197D5
S11301B0F1F700C000000E945D008FEF90E001970E
S11301C0F1F700C000000E945D008FEF90E00197FE
S11301D0F1F700C000005C980E945D008FEF90E092
S11301E00197F1F700C0000088E20E94980088E0BF
S11301F00E9498000E94AA0086E00E9498008C2F1A
S11302000E949800CF9108950F931F93CF93DF938B
S113021080E40E949800C4E0D1E004E111E08991F7
S11302200E949C00C017D107D1F780E80E94980073
S11302300E94AA0080E00E94AE0060E08FE00E946D
S1130240A00080E00E94AE0061E080E00E94A00077
S113025081E00E94AE0061E08FE00E94A00081E096
S11302600E94AE0060E081E00E94A00080E291E084
S11302700E94B200DF91CF911F910F910895CF9208
S1130280DF92EF92FF920F931F93CF93DF9387B187
S1130290807887B988B18F6088B900E010E06894ED
S11302A0CC24C4F8D12CD02F97B17601002E02C0F3
S11302B0EE0CFF1C0A94E2F79E2997B960E086E2EF
S11302C090E00E9453008823E9F0C0E06C2F86E29E
S11302D090E00E945300811107C08C2F880FC80F33
S11302E081E08D0F8C0F0FC0CF5FC43079F787B1D9
S11302F0E094E822E7B80F5F1F4F0330110599F629
S113030080E001C08FEFDF91CF911F910F91FF909B
S1130310EF90DF90CF9008950F931F93CF93DF93C7
S113032000D000D01F92CDB7DEB78C01FC018081D4
S11303308A3051F0E1EBF0E0808187608083E0E770
S1130340F0E08081816080830E943F01882309F46A
S11303504BC08A3019F08C3061F006C0F8018381FB
S11303608A3081F483E01CC0F80190819A3001F551
S11303702CC0E0E7F0E080818E7F808382E0809370
S1130380BB0132C0F80133968AE08083FFEF24E397
S11303908CE0F15020408040E1F700C0000024C010
S11303A08150F801E80FF11D90819A30C9F3ECCF28
S11303B098012F5F3F4FA8014C5F5F4FF9012F5FFA
S11303C03F4F90819A3021F401C0F801808303C02B
S11303D04217530799F79FEFE4E3FCE09150E040A4
S11303E0F040E1F700C00000F80180818A3069F430
S11303F0E0E7F0E080818E7F80831092B701109255
S1130400B8011092B9011092BA0185E0EEE2F1E070
S1130410DE01119601900D928A95E1F760E08AE081
S11304200E94A000D801FE0131969E012B5F3F4F30
S11304308D918A3011F08AE201C08FE58193E21731
S1130440F307B1F7CE0101960E94B2000F900F900E
S11304500F900F900F90DF91CF911F910F910895FE
S1130460EF92FF921F93CF93DF93CDB7DEB76A97D6
S11304700FB6F894DEBF0FBECDBF7C018EE0E2E480
S1130480F1E0DE01119601900D928A95E1F78CE07E
S1130490E4E1F1E0DE011F9601900D928A95E1F707
S11304A0BE01615F7F4F10E030E0A7014C5F5F4FFA
S11304B023C02D919191291301C03F5FE417F507E3
S11304C0C1F73430A1F460E081E00E94A00083E32E
S11304D091E00E94B20061E081E00E94A000105D02
S11304E01D87CE0101960E94B20081E009C01F5F02
S11304F06C5F7F4F133019F0F701DB01DACF80E036
S11305006A960FB6F894DEBF0FBECDBFDF91CF91D0
S11305101F91FF90EF9008958091BB018230D9F034
S113052028F4882331F0813089F031C0853088F196
S11305302EC00E940401E0E0F1E08AE08083818320
S11305408283838381E08093BB01089580E091E0FE
S11305500E948C01089580E091E00E943002811194
S113056002C084E001C083E08093BB01E0E7F0E0D7
S113057080818E7F8083A1EBB0E08C918E7F8C9301
S11305808C9186608C938081816080830895109221
S1130590BB010895239A2B9885B58D7F85BD85B5BC
S11305A0856085BDEEE6F0E0808181608083E1E8CE
S11305B0F0E080818B7F8083808183608083EFE69D
S11305C0F0E08081816080838CE00E94C20087E635
S11305D090E00E9498047894FFCF1F920F920FB678
S11305E00F9211242F933F934F935F936F937F93B5
S11305F08F939F93AF93BF93EF93FF930E948C02CB
S1130600FF91EF91BF91AF919F918F917F916F91E6
S11306105F914F913F912F910F900FBE0F901F90BC
S113062018951F920F920FB60F9211242F933F9398
S11306304F935F936F937F938F939F93AF93BF93E6
S1130640EF93FF9386E991E00E94C6049091BB0169
S11306508091B201981709F44FC080E591E00E949F
S1130660C6048091BB018230A9F028F4882341F0AC
S1130670813059F039C0833091F08430E9F034C0CE
S113068080E691E00E94C60433C086E691E00E94B1
S1130690C6042EC08FE691E00E94C60429C01092C1
S11306A0B3011092B4011092B5011092B6018AE719
S11306B091E00E94C6041CC08091B3019091B401E2
S11306C0A091B501B091B6010196A11DB11D809311
S11306D0B3019093B401A093B501B093B60184E83B
S11306E091E00E94C60404C08FE891E00E94C60411
S11306F085E991E00E94C6048091BB018093B20118
S1130700FF91EF91BF91AF919F918F917F916F91E5
S11307105F914F913F912F910F900FBE0F901F90BB
S113072018951F920F920FB60F9211242F933F9397
S11307304F935F936F937F938F939F93AF93BF93E5
S1130740EF93FF93CF93DF9300D01F92CDB7DEB723
S113075080E290E29A8389831B828091BB0183307B
S113076009F42B9A8091BB01843009F04AC080912E
S1130770B7019091B801A091B901B091BA018A3F33
S11307809105A105B105E9F560E081E00E94A000B2
S113079087E991E00E94B20061E081E00E94A0003C
S11307A085EA91E00E94B20061E08DE00E94A00021
S11307B04AE0BE016F5F7F4F8091B3019091B40115
S11307C00E94D504CE0101960E94B2008091B3012B
S11307D09091B401A091B501B091B6018436910510
S11307E0A105B10549F41092B3011092B40110921D
S11307F0B5011092B60105C00597A105B10508F031
S11308002A9A8091B7019091B801A091B901B09151
S1130810BA010196A11DB11D8093B7019093B8014F
S1130820A093B901B093BA01823E9440A105B105E9
S113083089F42B982A981092B7011092B80110925B
S1130840B9011092BA011092BB01E0E7F0E0808197
S11308508E7F80830F900F900F90DF91CF91FF9147
S1130860EF91BF91AF919F918F917F916F915F9124
S11308704F913F912F910F900FBE0F901F9018959D
S11308801F920F920FB60F9211242F938F939F9361
S1130890EF93FF938091C0002091C6008C71E0918A
S11308A0BE01EF5FEF719091BD01E91739F0E0935C
S11308B0BE01F0E0EF53FE4F208301C082E090912F
S11308C0BC01892B8093BC01FF91EF919F918F9183
S11308D02F910F900FBE0F901F9018951F920F929B
S11308E00FB60F9211248F939F93EF93FF939091E0
S11308F0C0018091BF01981769F0E091BF01EF5FDB
S1130900EF71E093BF01F0E0EF51FE4F80818093DF
S1130910C60005C0E1ECF0E080818F7D8083FF910B
S1130920EF919F918F910F900FBE0F901F9018958C
S11309301092C0011092BF011092BE011092BD012D
S113094099231CF422E02093C00090789093C50072
S11309508093C40088E98093C10086E08093C2003C
S113096008952091C0012F5F2F719091BF01291725
S1130970E1F3E22FF0E0EF51FE4F80832093C001BA
S1130980E1ECF0E08081806280830895CF93DF936F
S1130990EC018881882331F021960E94B104899169
S11309A08111FBCFDF91CF910895BB274A3031F4F9
S11309B0992322F4BDE2909581959F4F0C94E10414
S11309C0BB27FB015527AA27880F991FAA1FA41725
S11309D010F0A41B83955051B9F7A05DAA3308F019
S11309E0A95DA193009779F7B111B1931192CB014D
S11309F00C94FA04DC01FC01672F71917723E1F771
S1130A00329704C07C916D9370836291AE17BF07D7
S10B0A10C8F30895F894FFCF28
S1130A180A0A0A0A040E1F1F1F040E000E041F1FD1
S1130A281F0E0400040204020B010203090807064E
S1130A3850617373776F72643A5F5F5F5F00202061
S1130A48202000414343455353204752414E5445C7
S1130A58440057656C636F6D652055736572580063
S1130A6843757272656E742073746174653A2000FC
S1130A785245534554004745545F434F444500434A
S1130A884845434B5F434F444500444F4F525F4FE3
S1130A9850454E0057524F4E475F434F444500451B
S1130AA852524F52000A0041434345535320444590
S1130AB84E4945440057524F4E47205452494553D6
S1050AC83A00EE
S9030000FC
