S01700004763634170706C69636174696F6E312E737265635B
S11300000C9434000C9451000C9451000C94510045
S11300100C9451000C9451000C9451000C94510018
S11300200C9451000C94F4010C9451000C94510064
S11300300C9451000C9492010C9451000C945100B6
S11300400C9451000C9451000C9432020C946002F4
S11300500C9451000C9451000C9451000C945100D8
S11300600C9451000C94510011241FBECFEFD8E022
S1130070DEBFCDBF11E0A0E0B1E0ECEFF5E002C0DF
S113008005900D92A632B107D9F721E0A6E2B1E0BE
S113009001C01D92AF36B207E1F70E944D010C94E6
S11300A0FC020C940000FC01808190E002C0959554
S11300B087956A95E2F781700895299A85E08A9573
S11300C0F1F7000029980895CF93C82F662311F003
S11300D0289A01C02898549A559A569A579A5F9824
S11300E05E985D985C98CC230CF45F9AC6FD5E9A8A
S11300F0C5FD5D9AC4FD5C9A0E945D005F985E98A0
S11301005D985C98C3FD5F9AC2FD5E9AC1FD5D9ADD
S1130110C0FD5C9A0E945D005C9A5D9A5E9A5F9A4B
S113012087EB9BE00197F1F700C00000CF910895A1
S113013060E00E946400089561E00E9464000895F4
S1130140611104C080580E949800089580540E9450
S11301509800089581E00E949800089561E00E944B
S113016064000895CF93DF93EC012196FC01808114
S1130170882329F00E94AE0089918111FBCFDF9181
S1130180CF910895CF93C82F209A559A219A549AC3
S1130190559A569A579A8FEF99EF0197F1F700C045
S11301A000005D9A5C9A0E945D008FE19EE40197D5
S11301B0F1F700C000000E945D008FEF90E001970E
S11301C0F1F700C000000E945D008FEF90E00197FE
S11301D0F1F700C000005C980E945D008FEF90E092
S11301E00197F1F700C0000088E20E94980088E0BF
S11301F00E9498000E94AA0086E00E9498008C2F1A
S11302000E949800CF910895CF92DF92EF92FF92CF
S11302100F931F93CF93DF9387B1807887B988B109
S11302208F6088B900E010E06894CC24C4F8D12C25
S1130230D02F87B17601002E02C0EE0CFF1C0A9469
S1130240E2F78E2987B960E086E290E00E945300CD
S11302508823D1F0C0E06C2F86E290E00E94530026
S1130260811105C08C2F880F8C0F8D0F0DC0CF5FAF
S1130270C43089F787B1E094E822E7B80F5F1F4FD5
S113028003301105A9F68CE0DF91CF911F910F91F6
S1130290FF90EF90DF90CF9008958CE00E94C20011
S11302A080E40E949800C0E0D1E008E011E0899168
S11302B00E949C00C017D107D1F780E80E949800E3
S11302C080E00E94AE0060E08FE00E94A00080E029
S11302D00E94AE0060E081E00E94A00088E091E00E
S11302E00E94B200E1E8F0E080818B7F808380810E
S11302F083608083EFE6F0E0808181608083E1EBBE
S1130300F0E080818E7F8083808186608083E0E757
S1130310F0E080818160808387E690E00E948A0219
S11303207894FFCF1F920F920FB60F9211242F9340
S11303303F934F935F936F937F938F939F93AF9369
S1130340BF93EF93FF93CF93DF9300D000D0CDB74B
S1130350DEB780912801909129010196909329019B
S11303608093280161E08EE00E94A0008091280122
S113037090912901049709F51092290110922801FE
S113038086E191E00E94B80280E290E29A83898338
S113039080E290E09C838B830E9404014AE0BE01CA
S11303A06F5F7F4F90E00E94C702CE0101960E94CA
S11303B0B80284E291E00E94B8020F900F900F906F
S11303C00F90DF91CF91FF91EF91BF91AF919F91EA
S11303D08F917F916F915F914F913F912F910F90EA
S11303E00FBE0F901F9018951F920F920FB60F9289
S11303F011242F933F934F935F936F937F938F9326
S11304009F93AF93BF93EF93FF93809126019091B5
S113041027010196909327018093260162E08EE0E4
S11304200E94A0008091260190912701843C99406C
S113043041F4EFE6F0E08081816080838AE50E94E8
S1130440AE00FF91EF91BF91AF919F918F917F91FA
S11304506F915F914F913F912F910F900FBE0F902D
S11304601F9018951F920F920FB60F9211242F937D
S11304708F939F93EF93FF938091C0002091C600C8
S11304808C71E0912C01EF5FEF7190912B01E917D2
S113049039F0E0932C01F0E0E15DFE4F208301C0D0
S11304A082E090912A01892B80932A01FF91EF9198
S11304B09F918F912F910F900FBE0F901F901895C1
S11304C01F920F920FB60F9211248F939F93EF9365
S11304D0FF9390912E0180912D01981769F0E0917E
S11304E02D01EF5FEF71E0932D01F0E0E15BFE4F32
S11304F080818093C60005C0E1ECF0E080818F7DAF
S11305008083FF91EF919F918F910F900FBE0F9079
S11305101F90189510922E0110922D0110922C010B
S113052010922B0199231CF422E02093C0009078B0
S11305309093C5008093C40088E98093C10086E04D
S11305408093C200089520912E012F5F2F71909106
S11305502D012917E1F3E22FF0E0E15BFE4F8083E8
S113056020932E01E1ECF0E0808180628083089585
S1130570CF93DF93EC018881882331F021960E9488
S1130580A30289918111FBCFDF91CF910895BB27FD
S11305904A3031F4992322F4BDE2909581959F4F1E
S11305A00C94D302BB27FB015527AA27880F991F58
S11305B0AA1FA41710F0A41B83955051B9F7A05D8E
S11305C0AA3308F0A95DA193009779F7B111B1930B
S11305D01192CB010C94EC02DC01FC01672F7191A8
S11305E07723E1F7329704C07C916D937083629115
S10F05F0AE17BF07C8F30895F894FFCFBE
S11305FC040E1F1F1F040E1F50617373776F7264F8
S113060C3A5F5F5F5F0041637475616C2073746162
S109061C74653A000A00B7
S9030000FC
