S01700004763634170706C69636174696F6E312E737265635B
S11300000C9434000C9451000C9451000C94510045
S11300100C9451000C9451000C9451000C94510018
S11300200C9451000C9489030C9451000C945100CD
S11300300C9451000C9409030C9451000C9451003D
S11300400C94E5020C9451000C9438040C9466044E
S11300500C9451000C9451000C9451000C945100D8
S11300600C9451000C94510011241FBECFEFD8E022
S1130070DEBFCDBF11E0A0E0B1E0E8E0FAE002C0ED
S113008005900D92A43AB107D9F721E0A4EAB1E0B2
S113009001C01D92A33FB207E1F70E94C2020C9473
S11300A002050C940000FC01808190E002C095954B
S11300B087956A95E2F781700895299A85E08A9573
S11300C0F1F7000029980895CF93C82F662311F003
S11300D0289A01C02898549A559A569A579A5F9824
S11300E05E985D985C98CC230CF45F9AC6FD5E9A8A
S11300F0C5FD5D9AC4FD5C9A0E945D005F985E98A0
S11301005D985C98C3FD5F9AC2FD5E9AC1FD5D9ADD
S1130110C0FD5C9A0E945D005C9A5D9A5E9A5F9A4B
S113012087EB9BE00197F1F700C00000CF910895A1
S113013060E00E946400089561E00E9464000895F4
S1130140611104C080580E949800089580540E9450
S11301509800089581E00E949800089561E00E944B
S113016064000895CF93DF93EC012196FC01808114
S1130170882329F00E94AE0089918111FBCFDF9181
S1130180CF910895CF93C82F209A559A219A549AC3
S1130190559A569A579A8FEF99EF0197F1F700C045
S11301A000005D9A5C9A0E945D008FE19EE40197D5
S11301B0F1F700C000000E945D008FEF90E001970E
S11301C0F1F700C000000E945D008FEF90E00197FE
S11301D0F1F700C000005C980E945D008FEF90E092
S11301E00197F1F700C0000088E20E94980088E0BF
S11301F00E9498000E94AA0086E00E9498008C2F1A
S11302000E949800CF9108950F931F93CF93DF938B
S113021080E40E949800C4E0D1E004E111E08991F7
S11302200E949C00C017D107D1F780E80E94980073
S11302300E94AA0080E00E94AE0060E08FE00E946D
S1130240A00080E00E94AE0061E080E00E94A00077
S113025081E00E94AE0061E08FE00E94A00081E096
S11302600E94AE0060E081E00E94A00080E291E084
S11302700E94B200DF91CF911F910F910895CF9208
S1130280DF92EF92FF920F931F93CF93DF9387B187
S1130290807887B988B18F6088B900E010E06894ED
S11302A0CC24C4F8D12CD02F97B17601002E02C0F3
S11302B0EE0CFF1C0A94E2F79E2997B960E086E2EF
S11302C090E00E9453008823E9F0C0E06C2F86E29E
S11302D090E00E945300811107C08C2F880FC80F33
S11302E081E08D0F8C0F0FC0CF5FC43079F787B1D9
S11302F0E094E822E7B80F5F1F4F0330110599F629
S113030080E001C08FEFDF91CF911F910F91FF909B
S1130310EF90DF90CF9008950F931F93CF93DF93C7
S113032000D000D01F92CDB7DEB78C01FC018081D4
S11303308A3051F0E1EBF0E0808187608083E0E770
S1130340F0E08081816080830E943F01882309F46A
S11303504BC08A3019F08C3061F006C0F8018381FB
S11303608A3081F483E01CC0F80190819A3001F551
S11303702CC0E0E7F0E080818E7F808382E0809370
S1130380AD0132C0F80133968AE08083FFEF24E3A5
S11303908CE0F15020408040E1F700C0000024C010
S11303A08150F801E80FF11D90819A30C9F3ECCF28
S11303B098012F5F3F4FA8014C5F5F4FF9012F5FFA
S11303C03F4F90819A3021F401C0F801808303C02B
S11303D04217530799F79FEFE4E3FCE09150E040A4
S11303E0F040E1F700C00000F80180818A3069F430
S11303F0E0E7F0E080818E7F80831092A901109263
S1130400AA011092AB011092AC0185E0EEE2F1E09A
S1130410DE01119601900D928A95E1F760E08AE081
S11304200E94A000D801FE0131969E012B5F3F4F30
S11304308D918A3011F08AE201C08FE58193E21731
S1130440F307B1F7CE0101960E94B2000F900F900E
S11304500F900F900F90DF91CF911F910F910895FE
S1130460EF92FF921F93CF93DF93CDB7DEB76A97D6
S11304700FB6F894DEBF0FBECDBF7C018EE0E3E380
S1130480F1E0DE01119601900D928A95E1F78CE07E
S1130490E4E1F1E0DE011F9601900D928A95E1F707
S11304A0BE01615F7F4F10E030E0A7014C5F5F4FFA
S11304B01BC02D919191291301C03F5FE417F507EB
S11304C0C1F7343061F461E081E00E94A000105D66
S11304D01D87CE0101960E94B20081E009C01F5F12
S11304E06C5F7F4F133019F0F701DB01E2CF80E03E
S11304F06A960FB6F894DEBF0FBECDBFDF91CF91E1
S11305001F91FF90EF9008958091AD018230D9F052
S113051028F4882331F0813089F031C0853088F1A6
S11305202EC00E940401E0E0F1E08AE08083818330
S11305308283838381E08093AD01089580E091E01C
S11305400E948C01089580E091E00E9430028111A4
S113055002C084E001C083E08093AD01E0E7F0E0F5
S113056080818E7F8083A1EBB0E08C918E7F8C9311
S11305708C9186608C938081816080830895109231
S1130580AD010895239A2B9885B58D7F85BD85B5DA
S1130590856085BDEEE6F0E0808181608083E1E8DE
S11305A0F0E080818B7F8083808183608083EFE6AD
S11305B0F0E08081816080838CE00E94C20087E645
S11305C090E00E9490047894FFCF1F920F920FB690
S11305D00F9211242F933F934F935F936F937F93C5
S11305E08F939F93AF93BF93EF93FF930E948402E3
S11305F0FF91EF91BF91AF919F918F917F916F91F7
S11306005F914F913F912F910F900FBE0F901F90CC
S113061018951F920F920FB60F9211242F933F93A8
S11306204F935F936F937F938F939F93AF93BF93F6
S1130630EF93FF9387E891E00E94BE049091AD018F
S11306408091A401981709F44FC081E491E00E94BD
S1130650BE048091AD018230A9F028F4882341F0D2
S1130660813059F039C0833091F08430E9F034C0DE
S113067081E591E00E94BE0433C087E591E00E94C9
S1130680BE042EC080E691E00E94BE0429C01092F0
S1130690A5011092A6011092A7011092A8018BE661
S11306A091E00E94BE041CC08091A5019091A60116
S11306B0A091A701B091A8010196A11DB11D80933D
S11306C0A5019093A601A093A701B093A80185E783
S11306D091E00E94BE0404C080E891E00E94BE0440
S11306E086E891E00E94BE048091AD018093A4014C
S11306F0FF91EF91BF91AF919F918F917F916F91F6
S11307005F914F913F912F910F900FBE0F901F90CB
S113071018951F920F920FB60F9211242F933F93A7
S11307204F935F936F937F938F939F93AF93BF93F5
S1130730EF93FF93CF93DF9300D01F92CDB7DEB733
S113074080E290E29A8389831B828091AD01833099
S113075009F42B9A8091AD01843009F04AC080914C
S1130760A9019091AA01A091AB01B091AC018A3F7B
S11307709105A105B105E9F560E081E00E94A000C2
S113078088E891E00E94B20061E081E00E94A0004C
S113079086E991E00E94B20061E08DE00E94A00031
S11307A04AE0BE016F5F7F4F8091A5019091A60141
S11307B00E94CD04CE0101960E94B2008091A50151
S11307C09091A601A091A701B091A801843691054A
S11307D0A105B10549F41092A5011092A601109249
S11307E0A7011092A80105C00597A105B10508F05D
S11307F02A9A8091A9019091AA01A091AB01B0918C
S1130800AC010196A11DB11D8093A9019093AA0189
S1130810A093AB01B093AC01823E9440A105B10515
S113082089F42B982A981092A9011092AA01109287
S1130830AB011092AC011092AD01E0E7F0E08081D1
S11308408E7F80830F900F900F90DF91CF91FF9157
S1130850EF91BF91AF919F918F917F916F915F9134
S11308604F913F912F910F900FBE0F901F901895AD
S11308701F920F920FB60F9211242F938F939F9371
S1130880EF93FF938091C0002091C6008C71E0919A
S1130890B001EF5FEF719091AF01E91739F0E09388
S11308A0B001F0E0ED54FE4F208301C082E090914E
S11308B0AE01892B8093AE01FF91EF919F918F91AF
S11308C02F910F900FBE0F901F9018951F920F92AB
S11308D00FB60F9211248F939F93EF93FF939091F0
S11308E0B2018091B101981769F0E091B101EF5F15
S11308F0EF71E093B101F0E0ED52FE4F80818093FF
S1130900C60005C0E1ECF0E080818F7D8083FF911B
S1130910EF919F918F910F900FBE0F901F9018959C
S11309201092B2011092B1011092B0011092AF0175
S113093099231CF422E02093C00090789093C50082
S11309408093C40088E98093C10086E08093C2004C
S113095008952091B2012F5F2F719091B101291751
S1130960E1F3E22FF0E0ED52FE4F80832093B201D9
S1130970E1ECF0E08081806280830895CF93DF937F
S1130980EC018881882331F021960E94A904899181
S11309908111FBCFDF91CF910895BB274A3031F409
S11309A0992322F4BDE2909581959F4F0C94D9042C
S11309B0BB27FB015527AA27880F991FAA1FA41735
S11309C010F0A41B83955051B9F7A05DAA3308F029
S11309D0A95DA193009779F7B111B1931192CB015D
S11309E00C94F204DC01FC01672F71917723E1F789
S11309F0329704C07C916D9370836291AE17BF07E8
S10B0A00C8F30895F894FFCF38
S1130A080A0A0A0A040E1F1F1F040E000E041F1FE1
S1130A181F0E0400040204020B010203090807065E
S1130A2850617373776F72643A5F5F5F5F00202071
S1130A3820200057656C636F6D6520557365725887
S1130A480043757272656E742073746174653A201C
S1130A58005245534554004745545F434F444500AD
S1130A68434845434B5F434F444500444F4F525F0F
S1130A784F50454E0057524F4E475F434F44450031
S1130A884552524F52000A004143434553532044B0
S1130A98454E4945440057524F4E47205452494504
S1070AA8533A0000B9
S9030000FC
