S01700004763634170706C69636174696F6E312E737265635B
S11300000C9434000C9451000C9451000C94510045
S11300100C9451000C9451000C9451000C94510018
S11300200C9451000C946E030C9451000C945100E8
S11300300C9451000C940A030C9451000C9451003C
S11300400C94E6020C9451000C94B9030C94E7034D
S11300500C9451000C9451000C9451000C945100D8
S11300600C9451000C94510011241FBECFEFD8E022
S1130070DEBFCDBF11E0A0E0B1E0E0EAF8E002C0ED
S113008005900D92A839B107D9F721E0A8E9B1E0AC
S113009001C01D92A33EB207E1F70E94C3020C9473
S11300A04E040C940000FC01808190E002C0959500
S11300B087956A95E2F781700895299A85E08A9573
S11300C0F1F7000029980895CF93C82F662311F003
S11300D0289A01C02898549A559A569A579A5F9824
S11300E05E985D985C98CC230CF45F9AC6FD5E9A8A
S11300F0C5FD5D9AC4FD5C9A0E945D005F985E98A0
S11301005D985C98C3FD5F9AC2FD5E9AC1FD5D9ADD
S1130110C0FD5C9A0E945D005C9A5D9A5E9A5F9A4B
S113012087EB9BE00197F1F700C00000CF910895A1
S113013060E00E946400089561E00E9464000895F4
S1130140611104C080580E949800089580540E9450
S11301509800089581E00E949800089561E00E944B
S113016064000895CF93DF93EC012196FC01808114
S1130170882329F00E94AE0089918111FBCFDF9181
S1130180CF910895CF93C82F209A559A219A549AC3
S1130190559A569A579A8FEF99EF0197F1F700C045
S11301A000005D9A5C9A0E945D008FE19EE40197D5
S11301B0F1F700C000000E945D008FEF90E001970E
S11301C0F1F700C000000E945D008FEF90E00197FE
S11301D0F1F700C000005C980E945D008FEF90E092
S11301E00197F1F700C0000088E20E94980088E0BF
S11301F00E9498000E94AA0086E00E9498008C2F1A
S11302000E949800CF9108950F931F93CF93DF938B
S113021080E40E949800C4E0D1E004E111E08991F7
S11302200E949C00C017D107D1F780E80E94980073
S11302300E94AA0080E00E94AE0060E08FE00E946D
S1130240A00080E00E94AE0061E080E00E94A00077
S113025081E00E94AE0061E08FE00E94A00081E096
S11302600E94AE0060E081E00E94A00084E191E081
S11302700E94B200DF91CF911F910F910895CF9208
S1130280DF92EF92FF920F931F93CF93DF9387B187
S1130290807887B988B18F6088B900E010E06894ED
S11302A0CC24C4F8D12CD02F97B17601002E02C0F3
S11302B0EE0CFF1C0A94E2F79E2997B960E086E2EF
S11302C090E00E9453008823E9F0C0E06C2F86E29E
S11302D090E00E945300811107C08C2F880FC80F33
S11302E081E08D0F8C0F0FC0CF5FC43079F787B1D9
S11302F0E094E822E7B80F5F1F4F0330110599F629
S113030080E001C08FEFDF91CF911F910F91FF909B
S1130310EF90DF90CF9008950F931F93CF93DF93C7
S113032000D000D01F92CDB7DEB78C01FC018081D4
S11303308A3051F0E1EBF0E0808187608083E0E770
S1130340F0E08081816080830E943F01882309F46A
S11303504BC08A3019F08C3061F006C0F8018381FB
S11303608A3081F483E01CC0F80190819A3001F551
S11303702CC0E0E7F0E080818E7F808382E0809370
S11303809D0132C0F80133968AE08083FFEF24E3B5
S11303908CE0F15020408040E1F700C0000024C010
S11303A08150F801E80FF11D90819A30C9F3ECCF28
S11303B098012F5F3F4FA8014C5F5F4FF9012F5FFA
S11303C03F4F90819A3021F401C0F801808303C02B
S11303D04217530799F79FEFE4E3FCE09150E040A4
S11303E0F040E1F700C00000F80180818A3069F430
S11303F0E0E7F0E080818E7F808310929901109273
S11304009A0110929B0110929C0185E0E2E2F1E0D6
S1130410DE01119601900D928A95E1F760E08AE081
S11304200E94A000D801FE0131969E012B5F3F4F30
S11304308D918A3011F08AE201C08FE58193E21731
S1130440F307B1F7CE0101960E94B2000F900F900E
S11304500F900F900F90DF91CF911F910F910895FE
S1130460FC018081843099F481818230D1F58281CC
S11304708430C9F583818230C1F561E081E00E9456
S1130480A00087E291E00E94B20081E008958B30E1
S113049099F48181813059F58281823051F58381CB
S11304A0833049F561E081E00E94A00085E391E09A
S11304B00E94B20081E008958930F9F48181883086
S11304C0F1F482818730E9F483818630E1F461E0DC
S11304D081E00E94A00083E491E00E94B20081E0E8
S11304E0089580E0089580E0089580E0089580E014
S11304F0089580E0089580E0089580E0089580E004
S1130500089580E0089580E0089580919D018230EF
S1130510D9F028F4882331F0813089F031C0853056
S113052088F12EC00E940401E0E0F1E08AE08083BB
S113053081838283838381E080939D01089580E099
S113054091E00E948C01089580E091E00E943002C5
S1130550811102C084E001C083E080939D01E0E743
S1130560F0E080818E7F8083A1EBB0E08C918E7F60
S11305708C938C9186608C938081816080830895B4
S113058010929D010895239A2B9885B58D7F85BD82
S113059085B5856085BDEEE6F0E08081816080836D
S11305A0E1E8F0E080818B7F8083808183608083B9
S11305B0EFE6F0E08081816080838CE00E94C200DD
S11305C087E690E00E9411047894FFCF1F920F9267
S11305D00FB60F9211242F933F934F935F936F9312
S11305E07F938F939F93AF93BF93EF93FF930E9457
S11305F08502FF91EF91BF91AF919F918F917F9170
S11306006F915F914F913F912F910F900FBE0F907B
S11306101F9018951F920F920FB60F9211242F93CB
S11306203F934F935F936F937F938F939F93AF9376
S1130630BF93EF93FF9387E991E00E943F04909169
S11306409D01809198019817A1F181E591E00E94A4
S11306503F0480919D018230A9F028F4882341F061
S1130660813059F01EC0833091F08430A9F019C054
S113067081E691E00E943F0418C087E691E00E9461
S11306803F0413C080E791E00E943F040EC08BE753
S113069091E00E943F0409C085E891E00E943F0474
S11306A004C080E991E00E943F0486E991E00E9441
S11306B03F0480919D0180939801FF91EF91BF9138
S11306C0AF919F918F917F916F915F914F913F91E6
S11306D02F910F900FBE0F901F9018951F920F929D
S11306E00FB60F9211242F938F939F93AF93BF93C1
S11306F0EF93FF9380919D01833009F42B9A8091AD
S11307009D01843009F42A9A8091990190919A016B
S1130710A0919B01B0919C010196A11DB11D8093F4
S1130720990190939A01A0939B01B0939C01823EFE
S11307309440A105B10589F42B982A981092990147
S113074010929A0110929B0110929C0110929D01AB
S1130750E0E7F0E080818E7F8083FF91EF91BF918D
S1130760AF919F918F912F910F900FBE0F901F907B
S113077018951F920F920FB60F9211242F938F93F7
S11307809F93EF93FF938091C0002091C6008C71DA
S1130790E091A001EF5FEF7190919F01E91739F0AB
S11307A0E093A001F0E0ED55FE4F208301C082E00C
S11307B090919E01892B80939E01FF91EF919F91CF
S11307C08F912F910F900FBE0F901F9018951F922D
S11307D00F920FB60F9211248F939F93EF93FF9371
S11307E09091A2018091A101981769F0E091A10173
S11307F0EF5FEF71E093A101F0E0ED53FE4F8081D4
S11308008093C60005C0E1ECF0E080818F7D808399
S1130810FF91EF919F918F910F900FBE0F901F90BA
S113082018951092A2011092A1011092A0011092A9
S11308309F0199231CF422E02093C00090789093A8
S1130840C5008093C40088E98093C10086E080934A
S1130850C20008952091A2012F5F2F719091A101F0
S11308602917E1F3E22FF0E0ED53FE4F808320934C
S1130870A201E1ECF0E08081806280830895CF934F
S1130880DF93EC018881882331F021960E942A04A9
S113089089918111FBCFDF91CF910895F894FFCF17
S11308A00A0A0A0A040E1F1F1F040E000E041F1F4B
S11308B01F0E040050617373776F72643A5F5F5F59
S11308C05F00202020200057656C636F6D65205504
S11308D0736572310057656C636F6D652055736580
S11308E072320057656C636F6D65205573657233A2
S11308F00043757272656E742073746174653A2076
S1130900005245534554004745545F434F44450006
S1130910434845434B5F434F444500444F4F525F68
S11309204F50454E0057524F4E475F434F4445008A
S10B09304552524F52000A0027
S9030000FC
