S01700004763634170706C69636174696F6E312E737265635B
S11300000C9434000C9451000C9451000C94510045
S11300100C9451000C9451000C9451000C94510018
S11300200C9451000C949A020C9451000C945100BD
S11300300C9451000C94D9020C9451000C9451006E
S11300400C9476020C9451000C943D030C946B03B5
S11300500C9451000C9451000C9451000C945100D8
S11300600C9451000C94510011241FBECFEFD8E022
S1130070DEBFCDBF11E0A0E0B1E0E8EAF7E002C0E6
S113008005900D92A439B107D9F721E0A4E9B1E0B4
S113009001C01D92AF3DB207E1F70E9458020C94D3
S11300A0D2030C940000FC01808190E002C095957D
S11300B087956A95E2F781700895299A85E08A9573
S11300C0F1F7000029980895CF93C82F662311F003
S11300D0289A01C02898549A559A569A579A5F9824
S11300E05E985D985C98CC230CF45F9AC6FD5E9A8A
S11300F0C5FD5D9AC4FD5C9A0E945D005F985E98A0
S11301005D985C98C3FD5F9AC2FD5E9AC1FD5D9ADD
S1130110C0FD5C9A0E945D005C9A5D9A5E9A5F9A4B
S113012087EB9BE00197F1F700C00000CF910895A1
S113013060E00E946400089561E00E9464000895F4
S1130140611104C080580E949800089580540E9450
S11301509800089581E00E949800089561E00E944B
S113016064000895CF93DF93EC012196FC01808114
S1130170882329F00E94AE0089918111FBCFDF9181
S1130180CF910895CF93C82F209A559A219A549AC3
S1130190559A569A579A8FEF99EF0197F1F700C045
S11301A000005D9A5C9A0E945D008FE19EE40197D5
S11301B0F1F700C000000E945D008FEF90E001970E
S11301C0F1F700C000000E945D008FEF90E00197FE
S11301D0F1F700C000005C980E945D008FEF90E092
S11301E00197F1F700C0000088E20E94980088E0BF
S11301F00E9498000E94AA0086E00E9498008C2F1A
S11302000E949800CF9108950F931F93CF93DF938B
S113021088E00E94C2008CE00E94C20080E40E9438
S11302209800C4E0D1E004E111E089910E949C00AF
S1130230C017D107D1F780E80E94980080E00E949F
S1130240AE0060E08FE00E94A00080E00E94AE005B
S113025061E080E00E94A00081E00E94AE0061E0C5
S11302608FE00E94A00081E00E94AE0060E081E087
S11302700E94A00084E191E00E94B200DF91CF913E
S11302801F910F910895CF92DF92EF92FF920F93F7
S11302901F93CF93DF9387B1807887B988B18F603C
S11302A088B900E010E06894CC24C4F8D12CD02F95
S11302B097B17601002E02C0EE0CFF1C0A94E2F7FF
S11302C09E2997B960E086E290E00E94530088235B
S11302D0E9F0C0E06C2F86E290E00E9453008111A7
S11302E007C08C2F880FC80F81E08D0F8C0F0FC0B3
S11302F0CF5FC43079F787B1E094E822E7B80F5FA5
S11303001F4F0330110599F680E001C08FEFDF9194
S1130310CF911F910F91FF90EF90DF90CF900895B0
S1130320CF93DF93EC01E1EBF0E080818E7F80835B
S1130330808186608083E0E7F0E080818160808353
S11303400E9443018823A9F18A3019F08C3051F0BE
S113035005C08B818A3079F483E012C098819A3089
S1130360B9F421C0E0E7F0E080818E7F808382E0F1
S1130370809399011EC0FE0133968AE0808319C0E0
S11303808150FE01E80FF11D90819A30C9F3F5CF39
S11303909E012F5F3F4F2496F9012F5F3F4F9081BD
S11303A09A3021F401C0FE01808303C02C173D075D
S11303B099F7DF91CF910895FC018081843099F4FD
S11303C081818230D1F582818430C9F58381823084
S11303D0C1F561E081E00E94A00082E291E00E9408
S11303E0B20081E008958B3099F48181813059F510
S11303F08281823051F58381833049F561E081E067
S11304000E94A00080E391E00E94B20081E0089580
S11304108930F9F481818830F1F482818730E9F4FC
S113042083818430E1F461E081E00E94A0008EE3E6
S113043091E00E94B20081E0089580E0089580E098
S1130440089580E0089580E0089580E0089580E0B4
S1130450089580E0089580E0089580E0089580E0A4
S11304600895809199018230A1F028F4882331F015
S1130470813051F01AC08530D0F017C00E940401B9
S113048081E080939901089580E091E00E949001B9
S1130490089580E091E00E94DC01811102C084E0B3
S11304A001C083E080939901089510929901089501
S11304B085B58D7F85BD85B5856085BDEEE6F0E0AB
S11304C0808181608083E1E8F0E080818B7F80839C
S11304D0808183608083EFE6F0E0808181608083A7
S11304E087E690E00E9495037894FFCF1F920F92C5
S11304F00FB60F9211242F933F934F935F936F93F3
S11305007F938F939F93AF93BF93EF93FF930E9437
S11305103102FF91EF91BF91AF919F918F917F91A4
S11305206F915F914F913F912F910F900FBE0F905C
S11305301F9018951F920F920FB60F9211242F93AC
S11305408F939F93AF93BF93EF93FF938091950104
S113055090919601A0919701B0919801813E9440A9
S1130560A105B10539F4E0E7F0E080818E7F808356
S1130570109299018091950190919601A091970113
S1130580B09198010196A11DB11D8093950190939E
S11305909601A0939701B0939801FF91EF91BF91B9
S11305A0AF919F918F912F910F900FBE0F901F903D
S11305B018951F920F920FB60F9211242F933F9309
S11305C04F935F936F937F938F939F93AF93BF9357
S11305D0EF93FF9382E991E00E94C3039091990104
S11305E0809194019817A1F18CE491E00E94C303D7
S11305F0809199018230A9F028F4882341F0813058
S113060059F01EC0833091F08430A9F019C08CE5F4
S113061091E00E94C30318C082E691E00E94C303E4
S113062013C08BE691E00E94C3030EC086E791E0FD
S11306300E94C30309C080E891E00E94C30304C080
S11306408BE891E00E94C30381E991E00E94C30317
S11306508091990180939401FF91EF91BF91AF91A3
S11306609F918F917F916F915F914F913F912F91C6
S11306700F900FBE0F901F9018951F920F920FB6F8
S11306800F9211242F938F939F93EF93FF93809155
S1130690C0002091C6008C71E0919C01EF5FEF7166
S11306A090919B01E91739F0E0939C01F0E0E15649
S11306B0FE4F208301C082E090919A01892B8093A0
S11306C09A01FF91EF919F918F912F910F900FBEFF
S11306D00F901F9018951F920F920FB60F9211242E
S11306E08F939F93EF93FF9390919E0180919D012F
S11306F0981769F0E0919D01EF5FEF71E0939D0120
S1130700F0E0E154FE4F80818093C60005C0E1EC27
S1130710F0E080818F7D8083FF91EF919F918F9195
S11307200F900FBE0F901F90189510929E0110927B
S11307309D0110929C0110929B0199231CF422E0CC
S11307402093C00090789093C5008093C40088E9FA
S11307508093C10086E08093C200089520919E0199
S11307602F5F2F7190919D012917E1F3E22FF0E0A3
S1130770E154FE4F808320939E01E1ECF0E0808100
S1130780806280830895CF93DF93EC01888188236E
S113079031F021960E94AE0389918111FBCFDF9144
S10B07A0CF910895F894FFCFF6
S11307A80A0A0A0A040E1F1F1F040E000E041F1F44
S11307B81F0E040050617373776F72643A5F5F5F52
S11307C85F0057656C636F6D652055736572310002
S11307D857656C636F6D6520557365723200576594
S11307E86C636F6D6520557365723300437572725F
S11307F8656E742073746174653A200052455345DC
S113080854004745545F434F444500434845434BD0
S11308185F434F444500444F4F525F4F50454E008D
S113082857524F4E475F434F4445004552524F522B
S1070838000A0000AE
S9030000FC
